:020000040000FA
:04000000ACEF1FF052
:103F58000001DAEF1FF0BBEC1FF0B4EC1FF0120009
:103F6800320ED36E040ED26E000E9B6E1200000E3F
:103F78008D6E000E8C6E000E896E000E8A6E000E1D
:103F88008B6E070E966E9268FE0E936E9468956817
:103F98000F013B69FC0E3A6F3E0E396F070E3C6FFE
:103FA8002F0E386F000E616EF18E1200AFEC1FF00D
:103FB800E0EF1FF0E0EF1FF08AB0E5EF1FF0E8EF49
:103FC8001FF0010EE9EF1FF0000EFF0A016E8A5084
:103FD8000118FE0B01188A6EF2EF1FF0A30E016E96
:103FE800550EE82EFED7012EFCD700F0E0EF1FF0AB
:083FF800E0EF1FF000EF00F004
:020000040020DA
:08000000FFFFFFFFFFFFFFFF00
:020000040030CA
:0E000000FF281F3CFFBF85FF03C003E0034045
:00000001FF
