:020000040000FA
:0400000019EF00F004
:100008000382F2A20AEF00F00CEF00F017EF00F005
:10001800011E620E026E660EE82EFED7022EFCD777
:10002800F29217EF00F0039211003BEF00F0959069
:100038000F013B91938039918C90F28EF288F29265
:10004800F19C27EF00F00150D8B42DEF00F02FEF0E
:1000580000F032EF00F08C8027EF00F08C9027EF53
:1000680000F027EF00F027EF00F019EF00F0016A29
:0A0078000390039200011BEF00F05B
:020000040020DA
:08000000FFFFFFFFFFFFFFFF00
:020000040030CA
:0E000000FF281F3CFFBF85FF03C003E0034045
:00000001FF
